:020000040800F2
:1000000060050020D5030008A5010008A70100082D
:10001000DD010008E1010008E50100080000000022
:10002000000000000000000000000000E9010008DE
:10003000EB01000800000000ED010008EF010008DE
:10004000EF030008EF030008EF030008EF030008C8
:10005000EF030008EF030008EF030008EF030008B8
:10006000EF030008EF030008EF030008EF030008A8
:10007000EF030008EF030008EF030008EF03000898
:10008000EF030008EF030008EF030008EF03000888
:10009000EF030008EF030008EF030008EF03000878
:1000A000EF030008EF030008EF030008EF03000868
:1000B000EF030008EF030008EF030008EF03000858
:1000C000EF030008EF030008EF030008EF03000848
:1000D000EF030008AB010008EF030008EF0300087E
:1000E000EF030008EF030008EF030008DFF80CD06F
:1000F00001F0EEF8004800471501000860050020F7
:1001000010B500F0E6F800F069FF00F0C0FF00F065
:10011000D2FF10BDFFF7F4FF09A000F0DDFF16A02D
:1001200000F0DAFF0AE01E480078012806D100201E
:100130001B49087001F003F801F06EF8F3E70000C6
:10014000CFB5CDB3B3F5CABCBBAFCDEAB3C9A3AC91
:10015000B4F2D3A1CFB5CDB3D2D1D5FDB3A3B9A459
:10016000D7F7A3ACC7EBBFAACABCCAE4C8EBD6B8E2
:10017000C1EE0D0A00000000B4F2D3A1D6B8C1EE62
:10018000D2D4405072696E7444617461BFAACABC13
:10019000A3ACD2D43023BDE1CAF80D0A00000000A0
:1001A00030000020704700BFFEE710B540F2255137
:1001B0000F4800F08FFC08B100F0A1FF28210C4887
:1001C00000F088FC08B101F04CF840F224410848E6
:1001D00000F080FC08B100F0A9FF10BD00BFFEE7F1
:1001E00000BFFEE700BFFEE77047704770477047EB
:1001F000003801400CB50020019000906C48006868
:1002000040F480306A49086000BF6948006800F423
:10021000003000900198401C0190009818B9019896
:10022000B0F5A06FF1D16248006800F4003010B161
:100230000120009001E0002000900098012843D1A7
:100240005C48006840F010005A49086008460068A1
:1002500020F0030008600846006840F002000860D3
:10026000534840685249486008464068486008461C
:10027000406840F4806048600846406820F47C1084
:1002800048600846406840F4E81048600846006846
:1002900040F08070086000BF4548006800F00070C2
:1002A0000028F9D04248406820F0030040494860E7
:1002B0000846406840F00200486000BF3C48406883
:1002C00000F00C000828F9D10CBD10B5FFF792FF23
:1002D00010BD10B53648006840F001003449086090
:1002E000084640683449084031494860084600687B
:1002F000324908402E4908600846006820F48020F2
:1003000008600846406820F4FE0048604FF41F0073
:100310008860FFF7DAFF4FF000602949086010BDE0
:1003200010B5002100200022214B5B6803F00C0176
:1003300021B1042906D0082928D107E0214B224CFD
:10034000236027E01F4B204C236023E0184B5B68A1
:1003500003F47010164B5B6803F48032022303EB46
:10036000904022B9194B4343174C23600DE0104BCA
:100370005B6803F4003323B1144B4343124C2360F6
:1003800003E0104B4343104C236003E00D4B0E4C35
:10039000236000BF00BF064B5B68C3F303130C4C24
:1003A000E15C094B1B68CB40074C236010BD00008B
:1003B00000100240002002400000FFF8FFFFF6FEA0
:1003C00008ED00E000127A000000002000093D0066
:1003D000040000200648804706480047FEE7FEE785
:1003E000FEE7FEE7FEE7FEE7FEE7FEE7FEE7FEE7E5
:1003F000D3020008ED00000810B50446CC48844242
:1004000008D10121042000F031FD0021042000F07A
:100410002DFD46E0C748844208D10121082000F0A4
:1004200025FD0021082000F021FD3AE0C248844269
:1004300008D10121102000F019FD0021102000F04A
:1004400015FD2EE0BD48844208D10121202000F096
:100450000DFD0021202000F009FD22E0B848844273
:1004600008D10121402000F001FD0021402000F0D2
:10047000FDFC16E0B348844208D10121802000F041
:10048000F5FC0021802000F0F1FC0AE0AE48844237
:1004900007D10121801500F0E9FC0021A01500F032
:1004A000E5FC10BD10B50121084600F0DFFC00217D
:1004B000012000F0DBFC10BD2DE9F04102460025D3
:1004C0000026002000230024002791F803C00CF030
:1004D0000F0591F803C00CF0100CBCF1000F03D015
:1004E00091F802C04CEA050591F800C0BCF1000F7C
:1004F00031D0146800202BE04FF0010C0CFA00F30F
:10050000B1F800C00CEA03069E4220D183004FF0F0
:100510000F0C0CFA03F7BC4305FA03FC4CEA040485
:1005200091F803C0BCF1280F06D14FF0010C0CFA72
:1005300000FCC2F814C00AE091F803C0BCF1480FF7
:1005400005D14FF0010C0CFA00FCC2F810C0401CA1
:100550000828D1D31460B1F800C0BCF1FF0F34DD1E
:10056000546800202EE000F1080C4FF0010808FA52
:100570000CF3B1F800C00CEA03069E4221D18300BF
:100580004FF00F0C0CFA03F7BC4305FA03FC4CEADE
:10059000040491F803C0BCF1280F05D100F1080C48
:1005A00008FA0CF8C2F8148091F803C0BCF1480FA7
:1005B00007D100F1080C4FF0010808FA0CF8C2F856
:1005C0001080401C0828CED35460BDE8F0814FF65F
:1005D000FF710180022181700421C17070470246C1
:1005E000002093680B400BB1012000E00020704711
:1005F0000146886880B2704702460020D3680B40ED
:100600000BB1012000E0002070470146C86880B2AD
:10061000704701617047416170470AB1016100E0B4
:1006200041617047C16070474FF480320A43826174
:100630008161826182698269704702460020434B72
:1006400018684FF68073184040EA021008433F4B89
:10065000186070473E49C8617047F0B50A460023EC
:1006600000240021002500F00046B6F1004F02D121
:10067000364EF16901E0354E7168C0F3034583B22F
:1006800000F44016B6F5401F08D121F070612F4EDE
:10069000766826F070662D4F7E6012E000F48016BA
:1006A000B6F5801F06D1032606FA05F4A14341F0F2
:1006B000706106E0460D360103FA06F6B14341F0DB
:1006C000706122B1460D360103FA06F6314300F09F
:1006D0000046B6F1004F02D11C4EF16101E01B4E05
:1006E0007160F0BD30B500228B071C0F0F2303FA99
:1006F00004F2164B08338C1053F824309343134CF8
:1007000008348D1044F8253023468C1053F82430DB
:100710008C07240F00FA04F423430C4C08348D108A
:1007200044F8253030BD0A49DC31086070470000CC
:1007300000080140000C014000100140001401407D
:1007400000180140001C0140002001400000014051
:100750000000204210B50446FB48844209D1012123
:10076000880300F083FB00214FF4804000F07EFB03
:1007700032E0F648844209D10121480400F083FBAD
:1007800000214FF4003000F07EFB25E0F048844269
:1007900009D10121880400F076FB00214FF480206C
:1007A00000F071FB18E0EB48844209D10121C80434
:1007B00000F069FB00214FF4002000F064FB0BE027
:1007C000E548844208D10121080500F05CFB0021C6
:1007D0004FF4801000F057FB10BD2DE9F04786B0B4
:1007E00005460E460024A24600BFA1460027B08958
:1007F00000B100BF2F462C8A4CF6FF700440F088F1
:1008000004432C82AC894EF6F3100440B088318941
:100810000843718908430443AC81AC8A4FF6FF401A
:100820000440B0890443AC8201A800F098FAC6489D
:10083000874202D1DDF810A001E0DDF80CA0A88904
:1008400000F4004040B10AEBCA0000EB0A10316826
:100850004900B0FBF1F807E00AEBCA0000EB0A1010
:1008600031688900B0FBF1F86420B8FBF0F00401B6
:100870002009642101FB1089A88900F4004040B1DF
:10088000322000EBC900B0FBF1F000F00700044398
:1008900008E0322000EB09106421B0FBF1F000F019
:1008A0000F0004432C8106B0BDE8F0874FF41651C9
:1008B000016000218180C18001810C2141810021E2
:1008C0008181704710B502460020108A4FF2FF0365
:1008D00018400B884C8823438C882343CC882343BF
:1008E0001843108210BD0021018041808180C180A9
:1008F000704721B1828942F40052828104E08289EA
:100900004DF6FF731A4082817047F0B5034600240C
:1009100000260025002040F66A17B94200D100BF2A
:100920001846C1F3421401F01F06012707FA06F525
:10093000012C01D10C3004E0022C01D1103000E078
:1009400014301AB107682F43076002E00768AF430D
:100950000760F0BD1AB1838A0B43838202E0838A69
:100960008B4383827047028A4FF6F0731A400282EB
:10097000028A0A430282704782894FF2FF731A404B
:10098000828182890A438281704721B1828942F043
:100990000202828104E082894FF6FD731A4082814F
:1009A0007047028A4FF6DF731A400282028A0A43B6
:1009B0000282704721B1028A42F48042028204E03E
:1009C000028A4BF6FF731A4002827047C1F3080295
:1009D0008280704701468888C0F30800704781898B
:1009E00041F0010181817047028BD2B20283028BF8
:1009F00042EA012202837047028B02F47F420283A3
:100A0000028B0A430283704721B1828A42F020029E
:100A1000828204E0828A4FF6DF731A408282704736
:100A200021B1828A42F01002828204E0828A4FF66B
:100A3000EF731A408282704721B1828A42F0080225
:100A4000828204E0828A4FF6F7731A4082827047EE
:100A500021B1828942F40042828103E08289C2F39B
:100A60000E028281704721B1828A42F40062828242
:100A700004E0828A4FF2FF731A4082827047828AB2
:100A80004FF6FB731A408282828A0A438282704741
:100A900021B1828A42F00202828204E0828A4FF609
:100AA000FD731A408282704702460020B1F5007F34
:100AB00000D100BF13880B400BB1012000E00020E3
:100AC000704701F40072B2F5007F00D100BFCA4345
:100AD0000280704770B502460024002300250020E4
:100AE00040F66A16B14200D100BFC1F3421501F0D1
:100AF0001F03012606FA03F3012D02D19689334024
:100B000006E0022D02D1168A334001E0968A334076
:100B10000C12012606FA04F41688344013B10CB105
:100B2000012000E0002070BD10B50022002340F637
:100B30006A14A14200D100BF0A1201249440A3B25A
:100B4000DC43048010BD0000003801400044004038
:100B500000480040004C004000500040DF48006862
:100B600040F00100DD49086008464068DC49084063
:100B7000DA49486008460068DA490840D749086001
:100B80000846006820F4802008600846406820F489
:100B9000FE0048604FF41F0088607047CF49096825
:100BA00021F48031CD4A11601146096821F4802179
:100BB0001160B0F5803F03D0B0F5802F0ED106E074
:100BC000C649096841F48031C44A116007E0C3494D
:100BD000096841F4A021C14A116000E000BF00BFD4
:100BE000704710B501460022002300204A11012A57
:100BF00002D1BA4C236806E0022A02D1B74C236A1C
:100C000001E0B64C636A01F01F02012494401C40CD
:100C10000CB1012000E0002010BD38B5002000908C
:100C20000024002500BF3120FFF7DBFF05460098B8
:100C3000401C00900098B0F5A06F01D0002DF2D0BC
:100C40003120FFF7CEFF08B1012400E00024204648
:100C500038BD01460020A14A106820F0F80040EAA3
:100C6000C10010607047A04908607047024600202C
:100C70009A4B586820F47C1042EA01031843974BC2
:100C80005860704798490866704701460020934AAB
:100C9000506820F003000843506070478F48406858
:100CA00000F00C007047014600208C4A506820F08C
:100CB000F00008435060704701460020874A5068A2
:100CC00020F4E06008435060704701460020834AEA
:100CD000506820F4605040EAC1005060704729B16C
:100CE0007E4A527A02437D4B5A7204E07B4A527A22
:100CF00082437A4B5A7270477B49D83108607047FB
:100D000001460020754A506820F440400843506076
:100D100070470021714A20321170704A82F8201009
:100D2000012802D004280AD104E001216B4A2032B4
:100D3000117005E00521694A2032117000E000BF02
:100D400000BF70476949086070476449096A0143F8
:100D5000624A11627047654944390860704730B58E
:100D600000210022002400235C4D6D6805F00C0179
:100D700021B1042905D0082923D105E05C4D056087
:100D800022E05B4D05601FE0544D6D6805F4701264
:100D9000524D6D6805F48034022505EB92421CB972
:100DA000544D554305600BE04C4D6D6805F400351E
:100DB0001DB1504D5543056002E04D4D5543056052
:100DC00002E04B4D056000BF00BF444D6D6805F06B
:100DD000F0010909484D6B5C0568DD4045603F4DF9
:100DE0006D6805F4E061090A434D6B5C4568DD40C0
:100DF00085603A4D6D6805F46051C90A3E4D6B5CE3
:100E00004568DD40C560354D6D6805F44041890B8E
:100E10003A4D6B5CC568B5FBF3F5056130BD29B192
:100E20002E4A526902432D4B5A6104E02B4A526903
:100E300082432A4B5A61704729B1284A926902437A
:100E4000264B9A6104E0254A92698243234B9A61BA
:100E5000704729B1214AD2690243204BDA6104E08C
:100E60001E4AD26982431D4BDA61704729B11B4A81
:100E7000D2680243194BDA6004E0184AD268824310
:100E8000164BDA60704729B1144A12690243134BBA
:100E90001A6104E0114A12698243104B1A617047CB
:100EA00012494039086070470F49C86470470B49C0
:100EB000C87170470948406A40F08070074948622D
:100EC000704701460020054A92680A400AB1012095
:100ED00000E000207047014988727047001002400E
:100EE0000000FFF8FFFFF6FE00004242800442428D
:100EF00000127A0000093D001400002024000020A8
:100F000031490143314A1160704770B50021002317
:100F10000F22C47804B32D4C246804F4E064C4F5B3
:100F2000E064210AC1F10403CA40447804FA03F1E1
:100F30008478144021430901254C0678A155047892
:100F400004F01F050124AC4005786D11AD0005F1DA
:100F5000E025C5F8004109E0047804F01F050124EC
:100F6000AC401C4D0678761145F8264070BD1A4AF3
:100F70000A400243154B1B1F1A60704739B1134AD0
:100F8000121D12680243114B1B1D1A6006E00F4A26
:100F9000121D126882430D4B1B1D1A6070470428F6
:100FA00008D14FF0E021096941F004014FF0E0223F
:100FB000116107E04FF0E021096921F004014FF0D1
:100FC000E0221161704700000000FA050CED00E01E
:100FD00000E400E080E100E080FFFF1F00B585B085
:100FE00001210420FFF728FF01218803FFF724FFD8
:100FF00001210846FFF720FF9C48FFF7ABFB4FF4A9
:101000000070ADF8100003208DF8120018208DF844
:10101000130004A99648FFF74FFA4FF48060ADF82B
:10102000100004208DF8130004A99148FFF744FA3A
:101030004FF4965000904FF48050ADF8040000201B
:10104000ADF806004FF4C060ADF808000020ADF820
:101050000C000C20ADF80A0069468448FFF7BDFB80
:1010600001218248FFF745FC012240F225517F48CB
:10107000FFF74BFC012240F224417C48FFF745FC7E
:10108000012228217948FFF740FC05B000BD08B5D2
:101090004FF4C060FFF734FF25208DF800000020DA
:1010A0008DF801008DF8020001208DF803006846DC
:1010B000FFF72BFF08BD10B564216E4800F0FDF866
:1010C00064216D4800F0F9F800206C4908606C4913
:1010D00008606C49087010BD10B504460BE000BFF5
:1010E00040216248FFF7E0FC0028F9D021785F48F2
:1010F000FFF76CFC641C20780028F0D110BD10B5FF
:101100005A48FFF767FCC1B25C4802680068401C9F
:101110005A4B1860574881545A480078032804D124
:10112000524800885148001D008810BD4F48008873
:101130004E48001D008801205349087070474F48F1
:101140000068632803D301204E49087063E04B48D0
:101150000068401E4749085C232859D14748006869
:10116000801E085C302853D100204849086013E0F5
:10117000404846490968405C4549444A1268895CD0
:10118000884205D141480068401C4049086003E09E
:1011900002203C49087005E03C4800683D49097858
:1011A0008842E5D300BF394800683A490978884247
:1011B00031D138480078384908600FE02D48364969
:1011C0000968405C34490968324A1278891A2A4A07
:1011D000505431480068401C2F4908602748006877
:1011E000801E2D4909688842E8D80D2123480068EF
:1011F000801E284A1278801A1F4A11540A211F485B
:101200000068401E234A1278801A1B4A115402E0DB
:1012100002201C490870704710B51A48007830B990
:101220001548FFF759FF1D48FFF756FF16E0154810
:101230000078022803D11A48FFF74EFF0EE011484C
:101240000078012803D11748FFF746FF06E00D4854
:101250000078032802D11448FFF73EFFFFF72BFF69
:1012600010BD032007490870704700000038014096
:101270000008014098000020FC0000202800002009
:101280002C000020310000203000002090000020C1
:10129000320000203D000020940000207E0000204D
:1012A0004F0000203E00002063000020D2B201E089
:1012B00000F8012B491EFBD270470022F6E710B55B
:1012C00013460A4604461946FFF7F0FF204610BDB4
:1012D000064C074D06E0E06840F0010394E8070083
:1012E00098471034AC42F6D3FEF704FF14130008FD
:1012F0003413000802E008C8121F08C1002AFAD1FE
:1013000070477047002001E001C1121F002AFBD185
:10131000704700003413000800000020980000000F
:10132000F4120008CC13000898000020C804000044
:101330000413000800A24A0400000000000000009E
:10134000010203040607080900000000010203046B
:101350000102030406070809020406080000000051
:10136000000000000000405072696E7444617461B6
:10137000000A4F766572666C6F77206572726F72C5
:101380000D0A00696E737472756374696F6E2065FF
:1013900072726F720D0A00D0A3D1E9B4EDCEF3A33F
:1013A000ACC7EBD6D8D0C2B7A2CBCDC3FCC1EE0D33
:1013B0000A00CAFDBEDDD2D1B3C9B9A6B4F2D3A129
:0C13C0000D0A000000000000000000000A
:04000005080000ED02
:00000001FF
